:100000000C943A000C9457000C9457000C94570031
:100010000C9457000C9457000C9457000C94570004
:100020000C9457000C9457000C9457000C945700F4
:100030000C9457000C9457000C9457000C945700E4
:100040000C9457000C9457000C9457000C945700D4
:100050000C9457000C9457000C9457000C945700C4
:100060000C9457000C9457000C9457000C945700B4
:100070000C94570011241FBECFEFD4E0DEBFCDBFDC
:1000800012E0A0E0B1E0EEEDFCE002C005900D92C0
:10009000A831B107D9F722E0A8E1B2E001C01D9272
:1000A000A133B207E1F70E947F050C946D060C9412
:1000B000000070E0FB01EE0FFF1FEF5BFE4F2081A1
:1000C0003181F901FF2794A1932B94A395A1232FAC
:1000D0002095922395A3E0911802F0911902EE0F5A
:1000E000FF1FEF5BFE4F20813181F901FF2794A1B3
:1000F000932B94A395A1932B95A3709319026093CE
:100100001802EBE4F1E020E030E0682F70E0CB0172
:10011000022E02C0959587950A94E2F7408151819D
:10012000DA01BB2795969C91959780FF04C0852F97
:100130008095982301C0952B95969C932F5F3F4FF8
:1001400032962730310519F7089584E00E94BD01E9
:1001500081110C94D3030895CF93DF9380E00E9424
:10016000AC01882309F187EF91E00E94CF040E943F
:100170001501C0E8DCE00E94A5000E9411030E9466
:10018000F3040E94DE012197B1F7C0E00E94110341
:10019000EC2FF0E0E95CFE4F6C2F80810E9459004B
:1001A000CF5FC53098F3F1CF82E00E94AC01882385
:1001B000F9F08DEF91E00E94CF04C0E3D1E10E94FD
:1001C000A5000E9411030E94F3040E94DE01219702
:1001D000B1F7C0E00E941103EC2FF0E0EF5CFE4F9E
:1001E0006C2F80810E945900CF5FC53098F3F1CF0A
:1001F000DF91CF910895E1E6F0E080E880831082FE
:10020000A89584B7877F84BFE0E6F0E080818861AD
:100210008083108208951092800084E08093810092
:10022000109285001092840008958091840090912E
:1002300085000895AC0180918400909185009C0117
:10024000241B350B283E3340B0F7089520918400DD
:1002500030918500820F931F0C941A01853098F419
:10026000673088F421E030E001C0220F6A95EAF798
:10027000E82FF0E0E55EFD4F922F90958081892375
:100280004111822B80830895853080F4673070F4AB
:1002900021E030E001C0220F6A95EAF7E82FF0E094
:1002A000E55EFD4F8081282381E009F480E0089518
:1002B00060911A02E62FF0E0E55EFD4F80810E941A
:1002C000790280911A028F5F853018F480931A02A8
:1002D000089510921A020895EBE1F2E01082118263
:1002E00012821382148208950E9457020C946C01AA
:1002F0006230710519F170F46130710559F5FC0136
:10030000FF2724A1392F3095922F932394A385A101
:1003100083231DC06330710541F064307105D1F451
:10032000FC01FF2784A1892B0FC0FC01FF2784A1BA
:10033000892B84A385A19095892309C0FC01FF27FF
:1003400084A1292F2095822384A385A1892B85A3AD
:1003500081E0089580E00895E82FF0E0EE0FFF1FA0
:10036000E05EFD4F8081882321F0918181E0892723
:1003700002C080E090E081700895E82FF0E0EE0F79
:10038000FF1FE05EFD4F8081811102C0818102C0AC
:1003900080E090E081700895E82FF0E0EE0FFF1FFD
:1003A000E05EFD4F80810895E82FF0E0EE0FFF1F23
:1003B000E05EFD4F908181E0892708957F928F92C2
:1003C0009F92AF92BF92CF92DF92EF92FF920F93E4
:1003D0001F93CF93DF93C0E2D2E055EDC52E51E0DD
:1003E000D52E66E0762E88818983F60101911191E0
:1003F0006F015801BB24F50124A1E12EFF2485A142
:1004000090E08E219F2130E02E213F21232B31F0DF
:10041000892B51F433E0832E912C0DC0892B41F4AC
:1004200088248394912C07C094E0892E912C03C0DA
:1004300082E0882E912C64E070E0C8010E9478016F
:1004400062E070E0C8010E947801872D8A95F1F77B
:10045000F50183A190E0E822F92281E0EF2809F07C
:1004600080E08883B401C8010E9478012296F2E0FE
:10047000CA32DF0709F0B7CFDF91CF911F910F91FB
:10048000FF90EF90DF90CF90BF90AF909F908F90B4
:100490007F90089508959C01FC01FF2784A1832B80
:1004A00084A395A1892F832B85A381E00895CF9301
:1004B000DF93C9EED1E0899199910E944B0281E0CE
:1004C000C73FD807C1F783E090E40E944B0280E069
:1004D00090E80E944B0283E090E10E944B0283E08F
:1004E00090E80E944B0283E090E2DF91CF910C9460
:1004F0004B02E0912A02F0E0EE0FFF1FE152FE4FA7
:1005000020813181F901FF2795A1932B95A3E9EE75
:10051000F1E097E020813181D901BB2795962C919C
:10052000959780FF03C03095232301C0232B959618
:100530002C938695915032969111ECCFE62FF0E0F6
:10054000EE0FFF1FE152FE4F80819181FC01FF27DA
:1005500085A19095892385A360932A020895009729
:1005600089F0FC012381621B67FD09C0062E000C87
:10057000770B248130E081E0621773070CF080E094
:100580008170089580E00895CF93DF93FC01892B5B
:1005900079F18181481760F59281291748F5938197
:1005A000A62FA91BA7FD24C00A2E000CBB0BC481DB
:1005B000D0E0AC17BD07E4F4622F0E94EF05480FAE
:1005C000858190E0BD010E94F8050696242F2695AE
:1005D00026952695E80FF91FE20FF11D808190E026
:1005E000477002C0959587954A95E2F7817001C0E2
:1005F00080E0DF91CF910895CF93DF93EC010E94CB
:100600000B019E0140E050E062E17AE780E090E07B
:100610000E941D0630932E0220932D02DF91CF9170
:10062000089580912B0290912C020E941A01209132
:100630002B0230912C0280912D0290912E02820F7C
:10064000931F90932C0280932B020895692F0C9492
:10065000440141E0611101C040E0692F0C942E017A
:100660000C9429035F926F927F928F929F92AF9228
:10067000BF92CF92DF92EF92FF920F931F93CF938F
:10068000DF93562E872E942E5C01E62EF72EC62F72
:10069000660FDD0BC81BD10987FDD395072F770F98
:1006A000110B091B110997FD1395D7FF03C0772480
:1006B0007A9402C07724739417FF03C066246A9467
:1006C00002C066246394D7FF03C0D195C195D109B8
:1006D00017FF03C0119501951109C017D107A4F0A8
:1006E0006E01D594C794F92EA51411F1692D8A2DA8
:1006F0009F2D0E942903C01AD10AD7FE03C0CC0E39
:10070000DD1EF60CA70CF0CF6801D594C794E82E37
:10071000B81471F0692D8E2D9B2D0E942903CC1ADF
:10072000DD0AD7FE03C0C00ED11EE70CB60CF0CF19
:10073000692DC701DF91CF911F910F91FF90EF902D
:10074000DF90CF90BF90AF909F908F907F906F90F1
:100750005F900C942903FF920F931F93CF93DF9325
:10076000D82FF92E162FC72F042F792F0E9432036E
:10077000402F6D2F7C2F8D2F9F2D0E943203402FF5
:10078000612F7C2F812F9F2D0E943203402F612FDC
:100790007C2F8D2F9C2F0E943203DF91CF911F91D0
:1007A0000F91FF9008950E946C01E0E0F1E0118A42
:1007B00014860895DF92EF92FF920F931F93CF93C9
:1007C000DF93D82E7B01162F0F2D8091020190917F
:1007D0000301D0E0019799F50F2D0D1BE091080161
:1007E000F09109018181C0E0D817B8F48091080127
:1007F00090910901FC012281C21768F42C2F4D2F22
:100800006D2D0E94C402682F8E2D8C0F902F0E9498
:100810002903CF5FEBCFDF5FDFCFE0910801F091DD
:1008200009018281C81740F460E08E2D8C0F902F53
:100830000E942903CF5FF1CF015030C0DF5F1E2D32
:100840001D0FE0910801F09109018181C0E0D817E6
:10085000A8F48091080190910901FC012281C2173E
:1008600068F72C2F4D2F6D2D0E94C402682F812F09
:100870009F2D9C0F0E942903CF5FEBCFE0910801D1
:10088000F09109018281C81740F460E0812F9F2D0B
:100890009C0F0E942903CF5FF1CF1F5F812F902F04
:1008A000DF91CF911F910F91FF90EF90DF9008950E
:1008B0000F931F93CF938C01C0E0F80181918F01BA
:1008C000882341F00E94DA03BC01CF5F853014F425
:1008D00077FFF3CF8C2FCF911F910F9108950F9336
:1008E0001F93CF93DF9310920C0140930D01109250
:1008F000100100910801109109010115110509F479
:1009000049C09B01EC01F801818160910601709161
:10091000070190E00E94F805BC0180910A019091C6
:100920000B010E940906CB016AE070E00E94F80505
:1009300090930F0180930E013093050120930401E1
:1009400040E250E0BE0181E191E00E945E068091AC
:100950000001909101010197E9F4FE01019000204E
:10096000E9F73197BF016C1B7D0BF80181818F5F27
:100970000E94EF0581502091020130910301213046
:10098000310511F095E001C097E0981718F48EEF4B
:1009900080931001DF91CF911F910F9108952091C5
:1009A0000201309103012130310511F070E001C0E6
:1009B00076E04FEF60E00E946F04089590E090931E
:1009C000070180930601089590930101809300012F
:1009D0000895909303018093020108959093090173
:1009E00080930801089580912F0290913002019622
:1009F0009093300280932F0220910E0130910F01CD
:100A00008217930708F469C01092300210922F02E7
:100A1000E0910C01F0E0E050FF4F818981110AC0A4
:100A200080910D01823008F458C0815080930D01EF
:100A300010920C0180910C0190E0FC01E050FF4FFE
:100A40002189222309F449C04091000150910101FC
:100A5000209110014115510521F04130510599F0C7
:100A600024C0211122C060910401709105018F5EA4
:100A70009E4F0E94580490E0019790910C01890FBD
:100A800080930C0112C060910401709105014091A6
:100A90000201509103014130510511F4720F01C060
:100AA000621B8F5E9E4F0E945804809110018F5FE1
:100AB00080931001082E000C990BE0910801F09131
:100AC0000901218130E0281739073CF41092100108
:100AD00080910C018F5F80930C010C945801CF938F
:100AE000DF93C0E0D1E09B878A870E94740184E194
:100AF00090E09F838E83DF91CF910C94D303CF93AB
:100B00000E94FB0084EF91E00E94FC020E947401AD
:100B10000E940B0184EF91E00E946F0589E591E04E
:100B20000E94EE048AE00E94DE0481E090E00E94D0
:100B3000E40485E092E00E94CF0484E00E94D401A6
:100B4000882349F00E94A5000E9411030E94F3042B
:100B50000E94DE01F2CFABE4B1E029E531E08D91F6
:100B60009D91FC01FF2784A1892B84A385A1892B5A
:100B700085A32A173B0799F7A1E4B1E02BE431E004
:100B80008D919D91FC01FF2784A1892B84A385A1D0
:100B9000892B85A32A173B0799F7C5E00E9411030B
:100BA000EC2FF0E0E45CFE4F6C2F80810E94590036
:100BB000CF5FC53008F0C0E080E00E94AC01811139
:100BC00008C082E00E94AC01811103C00E94DE01D6
:100BD000E5CF0E94AC0080E090E0CF910895002422
:100BE00080FD060E660F11F08695D1F7802D0895D1
:100BF0000024552704C0080E591F880F991F00971D
:100C000029F076956795B8F37105B9F7802D952F82
:100C10000895AA1BBB1B51E107C0AA1FBB1FA61743
:100C2000B70710F0A61BB70B881F991F5A95A9F795
:100C300080959095BC01CD010895052E97FB1EF47B
:100C400000940E94340657FD07D00E943C0607FC22
:100C500003D04EF40C943406509540953095219570
:100C60003F4F4F4F5F4F08959095809570956195D8
:100C70007F4F8F4F9F4F0895A1E21A2EAA1BBB1BD7
:100C8000FD010DC0AA1FBB1FEE1FFF1FA217B30758
:100C9000E407F50720F0A21BB30BE40BF50B661F6E
:100CA000771F881F991F1A9469F760957095809532
:100CB00090959B01AC01BD01CF010895FB01DC01C2
:100CC0004150504048F001900D920020C9F701C0FA
:0E0CD0001D9241505040E0F70895F894FFCF78
:100CDE0000000000000014000000000000000000F2
:100CEE0000000000000000000000000000000000F6
:100CFE0000000000000000000000000000000000E6
:100D0E00000000080800000010181000000426243F
:100D1E0000034000800310038003200040002000E9
:100D2E00100008000400020001010305203B020030
:100D3E00009220EB737D5FDE3DA552EA7A14004AE5
:100D4E00222229BA2ED0050014C0010020A4126A56
:100D5E002B9A74A372A338ED498F38CE2AA712AA04
:100D6E002AAE49100410145444380E11152A2500C9
:100D7E0000EA5BEB3A4F726B3BCF73CF134F7AEDBA
:100D8E005B9774247B5D564972FD5B6F5B6F7BEFE7
:100D9E00136F7FEF57CE3897246D7B6D2BED5FADC4
:100DAE005AAD24A772038003400320008003100372
:100DBE00400080031003800320004000200010003C
:100DCE000800040002000142495244200043414EF3
:100DDE004E4F4E200043484F4F53452043484152FB
:080DEE0041435445522000006E
:00000001FF
