:100000000C943A000C9457000C9457000C94570031
:100010000C9457000C9457000C9457000C94570004
:100020000C9457000C9457000C9457000C945700F4
:100030000C9457000C9457000C9457000C945700E4
:100040000C9457000C9457000C9457000C945700D4
:100050000C9457000C9457000C9457000C945700C4
:100060000C9457000C9457000C9457000C945700B4
:100070000C94570011241FBECFEFD4E0DEBFCDBFDC
:1000800011E0A0E0B1E0E6E1FCE002C005900D92D5
:10009000AE3FB107D9F722E0AEEFB1E001C01D924B
:1000A000A731B207E1F70E94E4040C9409060C940E
:1000B000000084E00E94220181110C94380308950D
:1000C000E1E6F0E080E880831082A89584B7877F1E
:1000D00084BFE0E6F0E0808188618083108208952B
:1000E0001092800084E0809381001092850010922D
:1000F0008400089580918400909185000895AC015A
:1001000080918400909185009C01241B350B283E32
:100110003340B0F708952091840030918500820F1C
:10012000931F0C947F00853098F4673088F421E0A9
:1001300030E001C0220F6A95EAF7E82FF0E0EF5FA8
:10014000FD4F922F9095808189234111822B8083CE
:100150000895853080F4673070F421E030E001C00C
:10016000220F6A95EAF7E82FF0E0EF5FFD4F8081FC
:10017000282381E009F480E0089560910002E62FD1
:10018000F0E0EF5FFD4F80810E94DE018091000270
:100190008F5F853018F4809300020895109200025A
:1001A0000895E1E0F2E0108211821282138214823B
:1001B00008950E94BC010C94D1006230710519F1C0
:1001C00070F46130710559F5FC01FF2724A1392F26
:1001D0003095922F932394A385A183231DC0633070
:1001E000710541F064307105D1F4FC01FF2784A151
:1001F000892B0FC0FC01FF2784A1892B84A385A133
:100200009095892309C0FC01FF2784A1292F2095FF
:10021000822384A385A1892B85A381E0089580E0B2
:100220000895E82FF0E0EE0FFF1FEA5FFD4F808199
:10023000882321F0918181E0892702C080E090E04D
:1002400081700895E82FF0E0EE0FFF1FEA5FFD4F89
:100250008081811102C0818102C080E090E08170C4
:100260000895E82FF0E0EE0FFF1FEA5FFD4F808159
:100270000895E82FF0E0EE0FFF1FEA5FFD4F908139
:1002800081E0892708957F928F929F92AF92BF92CB
:10029000CF92DF92EF92FF920F931F93CF93DF9352
:1002A000C6E0D2E05AECC52E51E0D52E66E0762E9F
:1002B00088818983F601019111916F015801BB2456
:1002C000F50124A1E12EFF2485A190E08E219F213C
:1002D00030E02E213F21232B31F0892B51F433E0E4
:1002E000832E912C0DC0892B41F488248394912C6A
:1002F00007C094E0892E912C03C082E0882E912CB7
:1003000064E070E0C8010E94DD0062E070E0C801B6
:100310000E94DD00872D8A95F1F7F50183A190E019
:10032000E822F92281E0EF2809F080E08883B40117
:10033000C8010E94DD002296F2E0C031DF0709F01B
:10034000B7CFDF91CF911F910F91FF90EF90DF908A
:10035000CF90BF90AF909F908F907F900895089519
:100360009C01FC01FF2784A1832B84A395A1892FE5
:10037000832B85A381E00895CF93DF93CEEDD1E069
:10038000899199910E94B00181E0CC3ED807C1F7D4
:1003900083E090E40E94B00180E090E80E94B00108
:1003A00083E090E10E94B00183E090E80E94B001F8
:1003B00083E090E2DF91CF910C94B001E0911002C4
:1003C000F0E0EE0FFF1FEC52FE4F20813181F9016A
:1003D000FF2795A1932B95A3EEEDF1E097E0208107
:1003E0003181D901BB2795962C91959780FF03C049
:1003F0003095232301C0232B95962C9386959150FD
:1004000032969111ECCFE62FF0E0EE0FFF1FEC5289
:10041000FE4F80819181FC01FF2785A19095892362
:1004200085A3609310020895009789F0FC01238151
:10043000621B67FD09C0062E000C770B248130E09B
:1004400081E0621773070CF080E08170089580E00E
:100450000895CF93DF93FC01892B79F181814817AF
:1004600060F59281291748F59381A62FA91BA7FD56
:1004700024C00A2E000CBB0BC481D0E0AC17BD0712
:10048000E4F4622F0E948B05480F858190E0BD0146
:100490000E9494050696242F269526952695E80F0A
:1004A000F91FE20FF11D808190E0477002C0959521
:1004B00087954A95E2F7817001C080E0DF91CF9186
:1004C0000895CF93DF93EC010E9470009E0140E0FD
:1004D00050E062E17AE780E090E00E94B905309355
:1004E000140220931302DF91CF910895809111029D
:1004F000909112020E947F0020911102309112020D
:100500008091130290911402820F931F9093120214
:10051000809311020895692F0C94A90041E06111A4
:1005200001C040E0692F0C9493000C948E025F92FE
:100530006F927F928F929F92AF92BF92CF92DF92F3
:10054000EF92FF920F931F93CF93DF93562E872E38
:10055000942E5C01E62EF72EC62F660FDD0BC81B0E
:10056000D10987FDD395072F770F110B091B1109AF
:1005700097FD1395D7FF03C077247A9402C07724A0
:10058000739417FF03C066246A9402C066246394C0
:10059000D7FF03C0D195C195D10917FF03C01195AD
:1005A00001951109C017D107A4F06E01D594C79425
:1005B000F92EA51411F1692D8A2D9F2D0E948E020E
:1005C000C01AD10AD7FE03C0CC0EDD1EF60CA70C54
:1005D000F0CF6801D594C794E82EB81471F0692D56
:1005E0008E2D9B2D0E948E02CC1ADD0AD7FE03C0F1
:1005F000C00ED11EE70CB60CF0CF692DC701DF91FC
:10060000CF911F910F91FF90EF90DF90CF90BF900F
:10061000AF909F908F907F906F905F900C948E0220
:10062000FF920F931F93CF93DF93D82FF92E162F9E
:10063000C72F042F792F0E949702402F6D2F7C2FF8
:100640008D2F9F2D0E949702402F612F7C2F812F8D
:100650009F2D0E949702402F612F7C2F8D2F9C2F62
:100660000E949702DF91CF911F910F91FF90089503
:100670000E94D100E0E0F1E0118A14860895DF9233
:10068000EF92FF920F931F93CF93DF93D82E7B01AE
:10069000162F0F2D8091020190910301D0E0019758
:1006A00099F50F2D0D1BE0910801F0910901818151
:1006B000C0E0D817B8F48091080190910901FC01BD
:1006C0002281C21768F42C2F4D2F6D2D0E94290214
:1006D000682F8E2D8C0F902F0E948E02CF5FEBCF54
:1006E000DF5FDFCFE0910801F09109018281C81737
:1006F00040F460E08E2D8C0F902F0E948E02CF5F11
:10070000F1CF015030C0DF5F1E2D1D0FE0910801B9
:10071000F09109018181C0E0D817A8F48091080107
:1007200090910901FC012281C21768F72C2F4D2FEF
:100730006D2D0E942902682F812F9F2D9C0F0E94F2
:100740008E02CF5FEBCFE0910801F0910901828129
:10075000C81740F460E0812F9F2D9C0F0E948E02ED
:10076000CF5FF1CF1F5F812F902FDF91CF911F912E
:100770000F91FF90EF90DF9008950F931F93CF9309
:100780008C01C0E0F80181918F01882341F00E9423
:100790003F03BC01CF5F853014F477FFF3CF8C2F7C
:1007A000CF911F910F9108950F931F93CF93DF93D4
:1007B00010920C0140930D0110921001009108015C
:1007C000109109010115110509F449C09B01EC01C3
:1007D000F8018181609106017091070190E00E940B
:1007E0009405BC0180910A0190910B010E94A5051E
:1007F000CB016AE070E00E94940590930F01809312
:100800000E01309305012093040140E250E0BE0147
:1008100081E191E00E94FA0580910001909101012F
:100820000197E9F4FE0101900020E9F73197BF013B
:100830006C1B7D0BF80181818F5F0E948B058150BD
:1008400020910201309103012130310511F095E032
:1008500001C097E0981718F48EEF80931001DF9194
:10086000CF911F910F9108952091020130910301C2
:100870002130310511F070E001C076E04FEF60E00B
:100880000E94D403089590E090930701809306019D
:1008900008959093010180930001089590930301BE
:1008A00080930201089590930901809308010895AF
:1008B00080911502909116020196909316028093F2
:1008C000150220910E0130910F018217930708F451
:1008D00069C01092160210921502E0910C01F0E02E
:1008E000E050FF4F818981110AC080910D01823053
:1008F00008F458C0815080930D0110920C01809132
:100900000C0190E0FC01E050FF4F2189222309F403
:1009100049C0409100015091010120911001411501
:10092000510521F04130510599F024C0211122C018
:1009300060910401709105018F5E9E4F0E94BD037E
:1009400090E0019790910C01890F80930C0112C0E7
:1009500060910401709105014091020150910301E1
:100960004130510511F4720F01C0621B8F5E9E4F22
:100970000E94BD03809110018F5F80931001082EAB
:10098000000C990BE0910801F0910901218130E000
:10099000281739073CF41092100180910C018F5FE9
:1009A00080930C010C94BD00CF93DF93C0E0D1E0A5
:1009B0009B878A870E94D90084E190E09F838E8381
:1009C000DF91CF910C9438030E94600084EF91E096
:1009D0000E9461020E94D90084EF91E00E94D40439
:1009E0008EE491E00E9453048AE00E94430481E077
:1009F00090E00E9449048CEE91E00E94340484E06F
:100A00000E943901882349F00E9459000E94760211
:100A10000E9458040E944301F2CF2EE431E0A0E48A
:100A2000B1E08D919D91FC01FF2784A1892B84A3C6
:100A300085A1892B85A32A173B0799F7A6E3B1E087
:100A400020E431E08D919D91FC01FF2784A1892B49
:100A500084A385A1892B85A32A173B0799F7C5E0B5
:100A60000E9476022C2F30E0F901EF5CFE4F4081AE
:100A7000F901EE0FFF1FEA5CFE4F80819181FC01BE
:100A8000FF2784A1892B84A385A19095892385A321
:100A9000E0E4F1E080E090E050E0BA01082E02C00E
:100AA000759567950A94E2F760FF0AC060817181CD
:100AB000DB01BB2795966C9195977095672308C0CD
:100AC00060817181DB01BB2795966C919597672BAF
:100AD00095966C930196329687309105F1F6E091E8
:100AE000FE01F091FF01EE0FFF1FEA5CFE4F8081D7
:100AF0009181FC01FF2784A1892B84A385A1892BE7
:100B000085A33093FF012093FE01CF5FC53008F429
:100B1000A7CFC0E0A5CF002480FD060E660F11F020
:100B20008695D1F7802D08950024552704C0080E1E
:100B3000591F880F991F009729F076956795B8F38C
:100B40007105B9F7802D952F0895AA1BBB1B51E1A4
:100B500007C0AA1FBB1FA617B70710F0A61BB70B2D
:100B6000881F991F5A95A9F780959095BC01CD01D2
:100B70000895052E97FB1EF400940E94D00557FDA2
:100B800007D00E94D80507FC03D04EF40C94D00582
:100B900050954095309521953F4F4F4F5F4F0895A9
:100BA00090958095709561957F4F8F4F9F4F0895D9
:100BB000A1E21A2EAA1BBB1BFD010DC0AA1FBB1F61
:100BC000EE1FFF1FA217B307E407F50720F0A21BD3
:100BD000B30BE40BF50B661F771F881F991F1A9440
:100BE00069F760957095809590959B01AC01BD016A
:100BF000CF010895FB01DC014150504048F00190C5
:100C00000D920020C9F701C01D9241505040E0F7FD
:060C10000895F894FFCFE7
:100C160000000000000014000000000000000000BA
:100C260000000000000000000000000000000000BE
:100C360000000000000000000000000000000000AE
:100C460000000426240003400080031003800320D4
:100C5600004000200010000800040002000101030B
:100C660005203B0200009220EB737D5FDE3DA5521E
:100C7600EA7A14004A222229BA2ED0050014C001AD
:100C86000020A4126A2B9A74A372A338ED498F38F8
:100C9600CE2AA712AA2AAE49100410145444380EBC
:100CA60011152A250000EA5BEB3A4F726B3BCF73B6
:100CB600CF134F7AED5B9774247B5D564972FD5BCB
:100CC6006F5B6F7BEF136F7FEF57CE3897246D7B8B
:100CD6006D2BED5FAD5AAD24A77203800340032050
:100CE60000800310034000800310038003200040AF
:100CF60000200010000800040002000143484F4F86
:0E0D060053452043484152414354455220007A
:00000001FF
