:100000000C943A000C9457000C9457000C94570031
:100010000C9457000C9457000C9457000C94570004
:100020000C9457000C9457000C9457000C945700F4
:100030000C9457000C9457000C9457000C945700E4
:100040000C9457000C9457000C9457000C945700D4
:100050000C9457000C9457000C9457000C945700C4
:100060000C9457000C9457000C9457000C945700B4
:100070000C94570011241FBECFEFD4E0DEBFCDBFDC
:1000800011E0A0E0B1E0EAECFCE002C005900D92C6
:10009000AC36B107D9F721E0ACE6B1E001C01D9262
:1000A000A438B207E1F70E94DA050C9463060C94B9
:1000B000000062E87EE10E94EE052091840030910C
:1000C000850028173907C8F3109285001092840024
:1000D00008950E94670184E00E945501882381F001
:1000E00061E080E00E94CF0588EE93E00E94590015
:1000F00060E080E00E94CF0588EE93E00C94590008
:1001000060E080E00C94CF05E1E6F0E080E88083D9
:100110001082A89584B7877F84BFE0E6F0E08081F5
:1001200088618083108208951092800084E080931B
:1001300081001092850010928400089580918400BF
:10014000909185000895AC01809184009091850084
:100150009C01241B350B283E3340B0F708952091B5
:10016000840030918500820F931F0C94A30085308A
:1001700098F4673088F421E030E001C0220F6A95DE
:10018000EAF7E82FF0E0E359FE4F922F9095808137
:1001900089234111822B80830895853080F4673054
:1001A00070F421E030E001C0220F6A95EAF7E82FF1
:1001B000F0E0E359FE4F8081282381E009F480E0DC
:1001C000089560916C01E62FF0E0E359FE4F8081C5
:1001D0000E94020280916C018F5F853018F4809339
:1001E0006C01089510926C010895EDE6F1E0108223
:1001F000118212821382148208950E94E0010C94ED
:10020000F5006230710519F170F46130710559F52E
:10021000FC01FF2724A1392F3095922F932394A31B
:1002200085A183231DC06330710541F064307105E1
:10023000D1F4FC01FF2784A1892B0FC0FC01FF270B
:1002400084A1892B84A385A19095892309C0FC01F1
:10025000FF2784A1292F2095822384A385A1892BA0
:1002600085A381E0089580E00895E82FF0E0EE0F87
:10027000FF1FEE58FE4F8081882321F0918181E09D
:10028000892702C080E090E081700895E82FF0E0B7
:10029000EE0FFF1FEE58FE4F8081811102C0818159
:1002A00002C080E090E081700895E82FF0E0EE0F4A
:1002B000FF1FEE58FE4F80810895E82FF0E0EE0F0B
:1002C000FF1FEE58FE4F908181E0892708957F92AD
:1002D0008F929F92AF92BF92CF92DF92EF92FF9256
:1002E0000F931F93CF93DF93C2E7D1E051E3C52E65
:1002F00051E0D52E66E0762E88818983F601019142
:1003000011916F015801BB24F50124A1E12EFF24B6
:1003100085A190E08E219F2130E02E213F21232BCB
:1003200031F0892B51F433E0832E912C0DC0892BB1
:1003300041F488248394912C07C094E0892E912C59
:1003400003C082E0882E912C64E070E0C8010E9416
:10035000010162E070E0C8010E940101872D8A95C9
:10036000F1F7F50183A190E0E822F92281E0EF287E
:1003700009F080E08883B401C8010E94010122963F
:10038000F1E0CC37DF0709F0B7CFDF91CF911F91B4
:100390000F91FF90EF90DF90CF90BF90AF909F9024
:1003A0008F907F90089508959C01FC01FF2784A100
:1003B000832B84A395A1892F832B85A381E00895A6
:1003C000CF93DF93C5E4D1E0899199910E94D40144
:1003D00081E0C335D807C1F783E090E40E94D401DF
:1003E00080E090E80E94D40183E090E10E94D40173
:1003F00083E090E80E94D40183E090E2DF91CF9106
:100400000C94D401E0917C01F0E0EE0FFF1FE55C5D
:10041000FE4F20813181F901FF2795A1932B95A3F0
:10042000E5E4F1E097E020813181D901BB27959681
:100430002C91959780FF03C03095232301C0232B77
:1004400095962C938695915032969111ECCFE62F8C
:10045000F0E0EE0FFF1FE55CFE4F80819181FC0113
:10046000FF2785A19095892385A360937C0108953A
:10047000009789F0FC012381621B67FD09C0062EED
:10048000000C770B248130E081E0621773070CF0D9
:1004900080E08170089580E00895CF93DF93FC01A0
:1004A000892B79F18181481760F59281291748F5E8
:1004B0009381A62FA91BA7FD24C00A2E000CBB0BFD
:1004C000C481D0E0AC17BD07E4F4622F0E94E505BB
:1004D000480F858190E0BD010E94EE050696242F0D
:1004E000269526952695E80FF91FE20FF11D8081CC
:1004F00090E0477002C0959587954A95E2F7817024
:1005000001C080E0DF91CF910895CF93DF93EC019C
:100510000E9494009E0140E050E062E17AE780E0B2
:1005200090E00E9413063093800120937F01DF91B9
:10053000CF91089580917D0190917E010E94A3004A
:1005400020917D0130917E0180917F019091800109
:10055000820F931F90937E0180937D010895692FF0
:100560000C94CD0041E0611101C040E0692F0C9472
:10057000B7000C94B2025F926F927F928F929F921B
:10058000AF92BF92CF92DF92EF92FF920F931F93A1
:10059000CF93DF93562E872E942E5C01E62EF72EF6
:1005A000C62F660FDD0BC81BD10987FDD395072F1A
:1005B000770F110B091B110997FD1395D7FF03C086
:1005C00077247A9402C07724739417FF03C06624BB
:1005D0006A9402C066246394D7FF03C0D195C19585
:1005E000D10917FF03C0119501951109C017D10753
:1005F000A4F06E01D594C794F92EA51411F1692DBC
:100600008A2D9F2D0E94B202C01AD10AD7FE03C0C4
:10061000CC0EDD1EF60CA70CF0CF6801D594C79464
:10062000E82EB81471F0692D8E2D9B2D0E94B20218
:10063000CC1ADD0AD7FE03C0C00ED11EE70CB60CE3
:10064000F0CF692DC701DF91CF911F910F91FF90DE
:10065000EF90DF90CF90BF90AF909F908F907F9062
:100660006F905F900C94B202FF920F931F93CF9301
:10067000DF93D82FF92E162FC72F042F792F0E9422
:10068000BB02402F6D2F7C2F8D2F9F2D0E94BB0210
:10069000402F612F7C2F812F9F2D0E94BB02402F66
:1006A000612F7C2F8D2F9C2F0E94BB02DF91CF9159
:1006B0001F910F91FF9008950E94F500E0E0F1E096
:1006C000118A14860895DF92EF92FF920F931F9381
:1006D000CF93DF93D82E7B01162F0F2D809102012F
:1006E00090910301D0E0019799F50F2D0D1BE0913A
:1006F0000801F09109018181C0E0D817B8F4809118
:10070000080190910901FC012281C21768F42C2F85
:100710004D2F6D2D0E944D02682F8E2D8C0F902F26
:100720000E94B202CF5FEBCFDF5FDFCFE091080125
:10073000F09109018281C81740F460E08E2D8C0F82
:10074000902F0E94B202CF5FF1CF015030C0DF5F27
:100750001E2D1D0FE0910801F09109018181C0E07B
:10076000D817A8F48091080190910901FC01228119
:10077000C21768F72C2F4D2F6D2D0E944D02682F48
:10078000812F9F2D9C0F0E94B202CF5FEBCFE09193
:100790000801F09109018281C81740F460E0812FBF
:1007A0009F2D9C0F0E94B202CF5FF1CF1F5F812F60
:1007B000902FDF91CF911F910F91FF90EF90DF90DD
:1007C00008950F931F93CF938C01C0E0F80181919E
:1007D0008F01882341F00E946303BC01CF5F853005
:1007E00014F477FFF3CF8C2FCF911F910F910895C1
:1007F0000F931F93CF93DF9310920C0140930D0141
:1008000010921001009108011091090101151105C4
:1008100009F449C09B01EC01F80181816091060156
:100820007091070190E00E94EE05BC0180910A01E1
:1008300090910B010E94FF05CB016AE070E00E94DD
:10084000EE0590930F0180930E01309305012093E4
:10085000040140E250E0BE0181E191E00E945406B3
:1008600080910001909101010197E9F4FE0101904E
:100870000020E9F73197BF016C1B7D0BF8018181E6
:100880008F5F0E94E50581502091020130910301A4
:100890002130310511F095E001C097E0981718F468
:1008A0008EEF80931001DF91CF911F910F910895EA
:1008B00020910201309103012130310511F070E0E7
:1008C00001C076E04FEF60E00E94F803089590E0E9
:1008D00090930701809306010895909301018093FE
:1008E000000108959093030180930201089590936D
:1008F00009018093080108958091810190918201FE
:100900000196909382018093810120910E01309194
:100910000F018217930708F469C0109282011092A8
:100920008101E0910C01F0E0E050FF4F81898111DD
:100930000AC080910D01823008F458C08150809324
:100940000D0110920C0180910C0190E0FC01E0502F
:10095000FF4F2189222309F449C0409100015091A1
:100960000101209110014115510521F0413051053F
:1009700099F024C0211122C06091040170910501F9
:100980008F5E9E4F0E94E10390E0019790910C01D1
:10099000890F80930C0112C06091040170910501D0
:1009A00040910201509103014130510511F4720F41
:1009B00001C0621B8F5E9E4F0E94E1038091100177
:1009C0008F5F80931001082E000C990BE0910801B5
:1009D000F0910901218130E0281739073CF4109289
:1009E000100180910C018F5F80930C010C94E10049
:1009F000CF93DF93C0E0D1E09B878A870E94FD0000
:100A000084E190E09F838E83DF91CF910C945C030F
:100A1000E0918301F0E0EE0FFF1FED5AFE4F2081C1
:100A20003181F901FF2794A1932B94A395A1932BD6
:100A300095A3EDE5F1E020E030E090E0AC01022E7E
:100A400002C0559547950A94E2F740FF0AC04081DD
:100A50005181DA01BB2795964C9195975095452386
:100A600008C040815181DA01BB2795964C9195973A
:100A7000452B95964C932F5F3F4F3296273031058B
:100A8000E9F660938301E62FF0E0EE0FFF1FED5AC9
:100A9000FE4F80819181FC01FF2784A1892B84A3D3
:100AA00085A19095892385A308950E9484000E94C2
:100AB000D30184EF91E00E9485020E94E00110E1E1
:100AC00008E1D0E1C2E00E949A020E94670181E041
:100AD0000E943501882329F08C2F90E003970CF4B5
:100AE000CF5F83E00E943501882329F08C2F90E0AE
:100AF00002970CF0C15080E00E943501882329F054
:100B0000D23019F0D6950695169582E00E943501EF
:100B1000882329F0D03219F0DD0F000F110F6FEF8D
:100B20006C0F8D2F0E9408050E949A026C2F802F57
:100B30000E9408050E949A0261E06C0F812F0E94BA
:100B40000805C1CF0E9484000E94D30184EF91E088
:100B50000E9485020E94E001D8E0C8E00E9467017F
:100B600080E00E943501882321F0C13011F0C69544
:100B7000D69582E00E943501882321F0C03211F021
:100B8000CC0FDD0F63E08C2F0E9408050E949A02B3
:100B900064E08D2F0E9408050E949A02DFCF811128
:100BA00005C0662311F0429A0895429808953A9A32
:100BB000429A08950E9484000E94D3010E94D705A2
:100BC0000E9494000E946900FDCF002480FD060E63
:100BD000660F11F08695D1F7802D089500245527D2
:100BE00004C0080E591F880F991F009729F07695A9
:100BF0006795B8F37105B9F7802D952F0895AA1B55
:100C0000BB1B51E107C0AA1FBB1FA617B70710F0F7
:100C1000A61BB70B881F991F5A95A9F78095909529
:100C2000BC01CD010895052E97FB1EF400940E948F
:100C30002A0657FD07D00E94320607FC03D04EF467
:100C40000C942A0650954095309521953F4F4F4F73
:100C50005F4F089590958095709561957F4F8F4F68
:100C60009F4F0895A1E21A2EAA1BBB1BFD010DC0C8
:100C7000AA1FBB1FEE1FFF1FA217B307E407F5074C
:100C800020F0A21BB30BE40BF50B661F771F881F28
:100C9000991F1A9469F760957095809590959B01BE
:100CA000AC01BD01CF010895FB01DC014150504072
:100CB00048F001900D920020C9F701C01D924150EB
:0A0CC0005040E0F70895F894FFCFCC
:100CCA000000000000001400000000000000000006
:100CDA00000000000000000000000000000000000A
:100CEA0000000000000000000000000000000000FA
:100CFA0000038003400320008003100340008003A8
:100D0A0010038003200040002000100008000400A7
:100D1A00020001034000800310038003200040000A
:0C0D2A002000100008000400020001007E
:00000001FF
