:100000000C943A000C9457000C9457000C94570031
:100010000C9457000C9457000C9457000C94570004
:100020000C9457000C9457000C9457000C945700F4
:100030000C9457000C9457000C9457000C945700E4
:100040000C9457000C9457000C9457000C945700D4
:100050000C9457000C9457000C9457000C945700C4
:100060000C9457000C9457000C9457000C945700B4
:100070000C94570011241FBECFEFD4E0DEBFCDBFDC
:1000800011E0A0E0B1E0EEEEFBE002C005900D92C1
:10009000AC36B107D9F721E0ACE6B1E001C01D9262
:1000A000A438B207E1F70E942A050C94F5050C94D8
:1000B0000000E0916C01F0E0EE0FFF1FEF5CFE4FDF
:1000C00020813181F901FF2794A1932B94A395A15D
:1000D000932B95A3EBE3F1E020E030E090E0AC015E
:1000E000022E02C0559547950A94E2F740FF0AC0D8
:1000F00040815181DA01BB2795964C919597509597
:10010000452308C040815181DA01BB2795964C9167
:100110009597452B95964C932F5F3F4F32962730FE
:100120003105E9F660936C01E62FF0E0EE0FFF1F5A
:10013000EF5CFE4F80819181FC01FF2784A1892B18
:1001400084A385A19095892385A30895E1E6F0E035
:1001500080E880831082A89584B7877F84BFE0E61B
:10016000F0E0808188618083108208951092800081
:1001700084E080938100109285001092840008959D
:1001800080918400909185000895AC018091840055
:10019000909185009C01241B350B283E3340B0F71D
:1001A00008952091840030918500820F931F0C9454
:1001B000C500853098F4673088F421E030E001C054
:1001C000220F6A95EAF7E82FF0E0E259FE4F922FEE
:1001D0009095808189234111822B808308958530F9
:1001E00080F4673070F421E030E001C0220F6A959E
:1001F000EAF7E82FF0E0E259FE4F8081282381E002
:1002000009F480E0089560916D01E62FF0E0E25975
:10021000FE4F80810E94240280916D018F5F8530A6
:1002200018F480936D01089510926D010895EEE623
:10023000F1E01082118212821382148208950E94CA
:1002400002020C9417016230710519F170F46130EB
:10025000710559F5FC01FF2724A1392F3095922F04
:10026000932394A385A183231DC06330710541F0BE
:1002700064307105D1F4FC01FF2784A1892B0FC0E4
:10028000FC01FF2784A1892B84A385A19095892354
:1002900009C0FC01FF2784A1292F2095822384A374
:1002A00085A1892B85A381E0089580E00895E82F3A
:1002B000F0E0EE0FFF1FED58FE4F8081882321F004
:1002C000918181E0892702C080E090E081700895EB
:1002D000E82FF0E0EE0FFF1FED58FE4F80818111F7
:1002E00002C0818102C080E090E081700895E82F13
:1002F000F0E0EE0FFF1FED58FE4F80810895E82FCC
:10030000F0E0EE0FFF1FED58FE4F908181E089274E
:1003100008957F928F929F92AF92BF92CF92DF9279
:10032000EF92FF920F931F93CF93DF93C3E7D1E038
:1003300059E4C52E51E0D52E66E0762E888189835A
:10034000F601019111916F015801BB24F50124A11F
:10035000E12EFF2485A190E08E219F2130E02E2107
:100360003F21232B31F0892B51F433E0832E912C44
:100370000DC0892B41F488248394912C07C094E00C
:10038000892E912C03C082E0882E912C64E070E0CD
:10039000C8010E94230162E070E0C8010E942301AD
:1003A000872D8A95F1F7F50183A190E0E822F922E3
:1003B00081E0EF2809F080E08883B401C8010E9441
:1003C00023012296F1E0CD37DF0709F0B7CFDF91A7
:1003D000CF911F910F91FF90EF90DF90CF90BF9042
:1003E000AF909F908F907F90089508959C01FC019D
:1003F000FF2784A1832B84A395A1892F832B85A319
:1004000081E00895CF93DF93CDE5D1E08991999173
:100410000E94F60181E0CB36D807C1F783E090E473
:100420000E94F60180E090E80E94F60183E090E1EE
:100430000E94F60183E090E80E94F60183E090E2DA
:10044000DF91CF910C94F601E0917D01F0E0EE0F89
:10045000FF1FED5AFE4F20813181F901FF2795A141
:10046000932B95A3EDE5F1E097E020813181D9014F
:10047000BB2795962C91959780FF03C03095232339
:1004800001C0232B95962C9386959150329691110D
:10049000ECCFE62FF0E0EE0FFF1FED5AFE4F80810C
:1004A0009181FC01FF2785A19095892385A3609305
:1004B0007D010895009789F0FC012381621B67FD8F
:1004C00009C0062E000C770B248130E081E0621712
:1004D00073070CF080E08170089580E00895CF9359
:1004E000DF93FC01892B79F18181481760F59281B6
:1004F000291748F59381A62FA91BA7FD24C00A2E12
:10050000000CBB0BC481D0E0AC17BD07E4F4622F34
:100510000E947705480F858190E0BD010E9480050B
:100520000696242F269526952695E80FF91FE20FAB
:10053000F11D808190E0477002C0959587954A959E
:10054000E2F7817001C080E0DF91CF910895CF93F1
:10055000DF93EC010E94B6009E0140E050E062E1B2
:100560007AE780E090E00E94A50530938101209316
:100570008001DF91CF91089580917E0190917F015C
:100580000E94C50020917E0130917F018091800101
:1005900090918101820F931F90937F0180937E0140
:1005A0000895692F0C94EF0041E0611101C040E013
:1005B000692F0C94D9000C94D4025F926F927F92B1
:1005C0008F929F92AF92BF92CF92DF92EF92FF9263
:1005D0000F931F93CF93DF93562E872E942E5C019B
:1005E000E62EF72EC62F660FDD0BC81BD10987FD3F
:1005F000D395072F770F110B091B110997FD139541
:10060000D7FF03C077247A9402C07724739417FF2E
:1006100003C066246A9402C066246394D7FF03C0B3
:10062000D195C195D10917FF03C011950195110905
:10063000C017D107A4F06E01D594C794F92EA51464
:1006400011F1692D8A2D9F2D0E94D402C01AD10A62
:10065000D7FE03C0CC0EDD1EF60CA70CF0CF680150
:10066000D594C794E82EB81471F0692D8E2D9B2D6A
:100670000E94D402CC1ADD0AD7FE03C0C00ED11EE0
:10068000E70CB60CF0CF692DC701DF91CF911F9118
:100690000F91FF90EF90DF90CF90BF90AF909F9021
:1006A0008F907F906F905F900C94D402FF920F9385
:1006B0001F93CF93DF93D82FF92E162FC72F042F18
:1006C000792F0E94DD02402F6D2F7C2F8D2F9F2DC3
:1006D0000E94DD02402F612F7C2F812F9F2D0E94D1
:1006E000DD02402F612F7C2F8D2F9C2F0E94DD0279
:1006F000DF91CF911F910F91FF9008950E941701F4
:10070000E0E0F1E0118A14860895DF92EF92FF9203
:100710000F931F93CF93DF93D82E7B01162F0F2DAE
:100720008091020190910301D0E0019799F50F2D7E
:100730000D1BE0910801F09109018181C0E0D817FB
:10074000B8F48091080190910901FC012281C2173F
:1007500068F42C2F4D2F6D2D0E946F02682F8E2D67
:100760008C0F902F0E94D402CF5FEBCFDF5FDFCFE3
:10077000E0910801F09109018281C81740F460E01E
:100780008E2D8C0F902F0E94D402CF5FF1CF01509D
:1007900030C0DF5F1E2D1D0FE0910801F0910901AF
:1007A0008181C0E0D817A8F48091080190910901D7
:1007B000FC012281C21768F72C2F4D2F6D2D0E944E
:1007C0006F02682F812F9F2D9C0F0E94D402CF5F54
:1007D000EBCFE0910801F09109018281C81740F444
:1007E00060E0812F9F2D9C0F0E94D402CF5FF1CF3C
:1007F0001F5F812F902FDF91CF911F910F91FF905D
:10080000EF90DF9008950F931F93CF938C01C0E07A
:10081000F80181918F01882341F00E948503BC017A
:10082000CF5F853014F477FFF3CF8C2FCF911F91DA
:100830000F9108950F931F93CF93DF9310920C01A4
:1008400040930D01109210010091080110910901CF
:100850000115110509F449C09B01EC01F8018181E2
:10086000609106017091070190E00E948005BC0133
:1008700080910A0190910B010E949105CB016AE0E1
:1008800070E00E94800590930F0180930E013093D9
:1008900005012093040140E250E0BE0181E191E0B6
:1008A0000E94E60580910001909101010197E9F411
:1008B000FE0101900020E9F73197BF016C1B7D0B11
:1008C000F80181818F5F0E9477058150209102019C
:1008D000309103012130310511F095E001C097E01E
:1008E000981718F48EEF80931001DF91CF911F912C
:1008F0000F910895209102013091030121303105BB
:1009000011F070E001C076E04FEF60E00E941A0441
:10091000089590E0909307018093060108959093C5
:1009200001018093000108959093030180930201D7
:1009300008959093090180930801089580918201A0
:10094000909183010196909383018093820120917D
:100950000E0130910F018217930708F469C01092BD
:10096000830110928201E0910C01F0E0E050FF4F12
:10097000818981110AC080910D01823008F458C02C
:10098000815080930D0110920C0180910C0190E038
:10099000FC01E050FF4F2189222309F449C0409116
:1009A000000150910101209110014115510521F0E4
:1009B0004130510599F024C0211122C060910401F9
:1009C000709105018F5E9E4F0E94030490E0019795
:1009D00090910C01890F80930C0112C06091040169
:1009E0007091050140910201509103014130510580
:1009F00011F4720F01C0621B8F5E9E4F0E940304B0
:100A0000809110018F5F80931001082E000C990BCC
:100A1000E0910801F0910901218130E028173907A0
:100A20003CF41092100180910C018F5F80930C01B7
:100A30000C940301CF93DF93C0E0D1E09B878A87BA
:100A40000E941F0184E190E09F838E83DF91CF910C
:100A50000C947E030E94A6000E94F50184EF91E0B1
:100A60000E94A7020E94020210E108E1D0E1C2E068
:100A70000E94BC020E94890181E00E9457018823E4
:100A800029F08C2F90E003970CF4CF5F83E00E9455
:100A90005701882329F08C2F90E002970CF0C15069
:100AA00080E00E945701882329F0D23019F0D695B2
:100AB0000695169582E00E945701882329F0D032CE
:100AC00019F0DD0F000F110F6FEF6C0F8D2F0E94CB
:100AD00059000E94BC026C2F802F0E9459000E9476
:100AE000BC0261E06C0F812F0E945900C1CF00242D
:100AF00080FD060E660F11F08695D1F7802D0895C2
:100B00000024552704C0080E591F880F991F00970D
:100B100029F076956795B8F37105B9F7802D952F73
:100B20000895AA1BBB1B51E107C0AA1FBB1FA61734
:100B3000B70710F0A61BB70B881F991F5A95A9F786
:100B400080959095BC01CD010895052E97FB1EF46C
:100B500000940E94BC0557FD07D00E94C40507FC05
:100B600003D04EF40C94BC055095409530952195DA
:100B70003F4F4F4F5F4F08959095809570956195C9
:100B80007F4F8F4F9F4F0895A1E21A2EAA1BBB1BC8
:100B9000FD010DC0AA1FBB1FEE1FFF1FA217B30749
:100BA000E407F50720F0A21BB30BE40BF50B661F5F
:100BB000771F881F991F1A9469F760957095809523
:100BC00090959B01AC01BD01CF010895FB01DC01B3
:100BD0004150504048F001900D920020C9F701C0EB
:0E0BE0001D9241505040E0F70895F894FFCF69
:100BEE0000000000000014000000000000000000E3
:100BFE0000000000000000000000000000000000E7
:100C0E0000000000000000000000000000000000D6
:100C1E0000034000800310038003200040002000EA
:100C2E0010000800040002000103800340032000AE
:100C3E008003100340008003100380032000400057
:0C0C4E002000100008000400020001005B
:00000001FF
