:100000000C943A000C9457000C9457000C94570031
:100010000C9457000C9457000C9457000C94570004
:100020000C9457000C9457000C9457000C945700F4
:100030000C9457000C9457000C9457000C945700E4
:100040000C9457000C9457000C9457000C945700D4
:100050000C9457000C9457000C9457000C945700C4
:100060000C9457000C9457000C9457000C945700B4
:100070000C94570011241FBECFEFD4E0DEBFCDBFDC
:1000800014E0A0E0B1E0EAEBFEE002C005900D92C2
:10009000A832B107D9F724E0A8E2B4E001C01D926C
:1000A000A234B207E1F70E9489060C945B070C9416
:1000B0000000E0912804F0912904EE0FFF1FEF5B90
:1000C000FE4F20813181F901FF2794A1932B94A346
:1000D00095A1932B95A3EBE4F1E020E030E090E0D4
:1000E000AC01022E02C0559547950A94E2F740FFF5
:1000F0000AC040815181DA01BB2795964C919597B2
:100100005095452308C040815181DA01BB2795965F
:100110004C919597452B95964C932F5F3F4F329678
:1001200027303105E9F670E07093290460932804C4
:10013000660F771FFB01EF5BFE4F80819181FC0111
:10014000FF2784A1892B84A385A19095892385A36A
:10015000089584E00E942D0281110C9443040895B7
:100160000F931F93CF9384EF91E00E94DF0580E00F
:100170000E941C02882331F180EF93E00E943F052A
:100180000E94850104EC19E00E9481030E9463052E
:1001900001501109C9F708EE13E0C0E00E94810385
:1001A000EC2FF0E0E95CFE4F6C2F80810E9459003B
:1001B000CF5FC53008F0C0E00150110979F708EEB3
:1001C00013E003C000E010E0C0E082E00E941C02E7
:1001D000882319F18AEF93E00E943F050E94810372
:1001E0000E9463050F5F1F4F083B8BE01807B1F7B4
:1001F00008EE13E00E948103EC2FF0E0EF5CFE4F6D
:100200006C2F80810E945900CF5FC53008F0C0E09C
:100210000150110979F708EE13E089E591E00E9499
:100220005E0586E094E00E943F050E9481030E94E3
:1002300063050F5F1F4F023884E11807B1F7CF91B4
:100240001F910F910895EF92FF920F931F93CF93F9
:10025000DF93C4E0D0E00BE411E0ABE4B1E08D91BA
:100260009D91FC01FF2784A1892B84A385A19095F2
:10027000892385A381E0A935B80789F7A1E4B1E016
:100280008D919D91FC01FF2784A1892B84A385A1D9
:100290009095892385A30A171B0791F792E3E92E0E
:1002A000F12C0E94810381E0E81AF108D1F70E9445
:1002B000C70280E5E82EF12C0E94810381E0E81A54
:1002C000F108D1F7219749F6DF91CF911F910F9156
:1002D000FF90EF900895E1E6F0E080E880831082DF
:1002E000A89584B7877F84BFE0E6F0E080818861CD
:1002F0008083108208951092800084E080938100B2
:10030000109285001092840008958091840090914D
:1003100085000895AC0180918400909185009C0136
:10032000241B350B283E3340B0F7089520918400FC
:1003300030918500820F931F0C948A01853098F4C8
:10034000673088F421E030E001C0220F6A95EAF7B7
:10035000E82FF0E0E55DFB4F922F90958081892397
:100360004111822B80830895853080F4673070F4CA
:1003700021E030E001C0220F6A95EAF7E82FF0E0B3
:10038000E55DFB4F8081282381E009F480E008953A
:1003900060912A04E62FF0E0E55DFB4F80810E942A
:1003A000E90280912A048F5F853018F480932A0433
:1003B000089510922A040895EBE2F4E0108211826D
:1003C00012821382148208950E94C7020C94DC01E9
:1003D0006230710519F170F46130710559F5FC0155
:1003E000FF2724A1392F3095922F932394A385A121
:1003F00083231DC06330710541F064307105D1F471
:10040000FC01FF2784A1892B0FC0FC01FF2784A1D9
:10041000892B84A385A19095892309C0FC01FF271E
:1004200084A1292F2095822384A385A1892B85A3CC
:1004300081E0089580E00895E82FF0E0EE0FFF1FBF
:10044000E05DFB4F8081882321F0918181E0892745
:1004500002C080E090E081700895E82FF0E0EE0F98
:10046000FF1FE05DFB4F8081811102C0818102C0CE
:1004700080E090E081700895E82FF0E0EE0FFF1F1C
:10048000E05DFB4F80810895E82FF0E0EE0FFF1F45
:10049000E05DFB4F908181E0892708957F928F92E4
:1004A0009F92AF92BF92CF92DF92EF92FF920F9303
:1004B0001F93CF93DF93C0E3D4E056EBC52E53E0F8
:1004C000D52E66E0762E88818983F60101911191FF
:1004D0006F015801BB24F50124A1E12EFF2485A161
:1004E00090E08E219F2130E02E213F21232B31F0FF
:1004F000892B51F433E0832E912C0DC0892B41F4CC
:1005000088248394912C07C094E0892E912C03C0F9
:1005100082E0882E912C64E070E0C8010E94E8011E
:1005200062E070E0C8010E94E801872D8A95F1F72A
:10053000F50183A190E0E822F92281E0EF2809F09B
:1005400080E08883B401C8010E94E8012296F4E0AB
:10055000CA33DF0709F0B7CFDF91CF911F910F9119
:10056000FF90EF90DF90CF90BF90AF909F908F90D3
:100570007F90089508959C01FC01FF2784A1832B9F
:1005800084A395A1892F832B85A381E00895CF9320
:10059000DF93CAECD3E0899199910E94BB0283E07A
:1005A000C83DD807C1F783E090E40E94BB0280E019
:1005B00090E80E94BB0283E090E10E94BB0283E0CE
:1005C00090E80E94BB0283E090E2DF91CF910C940F
:1005D000BB02E0913A04F0E0EE0FFF1FE054FC4F45
:1005E00020813181F901FF2795A1932B95A3EAEC96
:1005F000F3E097E020813181D901BB2795962C91BA
:10060000959780FF03C03095232301C0232B959637
:100610002C938695915032969111ECCFE62FF0E015
:10062000EE0FFF1FE054FC4F80819181FC01FF27FA
:1006300085A19095892385A360933A040895009736
:1006400089F0FC012381621B67FD09C0062E000CA6
:10065000770B248130E081E0621773070CF080E0B3
:100660008170089580E00895CF93DF93FC01892B7A
:1006700079F18181481760F59281291748F59381B6
:10068000A62FA91BA7FD24C00A2E000CBB0BC481FA
:10069000D0E0AC17BD07E4F4622F0E94DD06480FDE
:1006A000858190E0BD010E94E6060696242F2695DE
:1006B00026952695E80FF91FE20FF11D808190E045
:1006C000477002C0959587954A95E2F7817001C001
:1006D00080E0DF91CF910895CF93DF93EC010E94EA
:1006E0007B019E0140E050E062E17AE780E090E02B
:1006F0000E940B0730933E0420933D04DF91CF917D
:10070000089580913B0490913C040E948A012091BD
:100710003B0430913C0480913D0490913E04820F53
:10072000931F90933C0480933B040895692F0C948D
:10073000B40141E0611101C040E0692F0C949E01B9
:100740000C9499035F926F927F928F929F92AF92D7
:10075000BF92CF92DF92EF92FF920F931F93CF93AE
:10076000DF93562E872E942E5C01E62EF72EC62F91
:10077000660FDD0BC81BD10987FDD395072F770FB7
:10078000110B091B110997FD1395D7FF03C077249F
:100790007A9402C07724739417FF03C066246A9486
:1007A00002C066246394D7FF03C0D195C195D109D7
:1007B00017FF03C0119501951109C017D107A4F0C7
:1007C0006E01D594C794F92EA51411F1692D8A2DC7
:1007D0009F2D0E949903C01AD10AD7FE03C0CC0EE8
:1007E000DD1EF60CA70CF0CF6801D594C794E82E57
:1007F000B81471F0692D8E2D9B2D0E949903CC1A8F
:10080000DD0AD7FE03C0C00ED11EE70CB60CF0CF38
:10081000692DC701DF91CF911F910F91FF90EF904C
:10082000DF90CF90BF90AF909F908F907F906F9010
:100830005F900C949903FF920F931F93CF93DF93D4
:10084000D82FF92E162FC72F042F792F0E94A2031D
:10085000402F6D2F7C2F8D2F9F2D0E94A203402FA4
:10086000612F7C2F812F9F2D0E94A203402F612F8B
:100870007C2F8D2F9C2F0E94A203DF91CF911F917F
:100880000F91FF9008950E94DC01E0E0F1E0118AF1
:1008900014860895DF92EF92FF920F931F93CF93E8
:1008A000DF93D82E7B01162F0F2D8091020190919E
:1008B0000301D0E0019799F50F2D0D1BE091080180
:1008C000F09109018181C0E0D817B8F48091080146
:1008D00090910901FC012281C21768F42C2F4D2F41
:1008E0006D2D0E943403682F8E2D8C0F902F0E9447
:1008F0009903CF5FEBCFDF5FDFCFE0910801F0918D
:1009000009018281C81740F460E08E2D8C0F902F72
:100910000E949903CF5FF1CF015030C0DF5F1E2DE1
:100920001D0FE0910801F09109018181C0E0D81705
:10093000A8F48091080190910901FC012281C2175D
:1009400068F72C2F4D2F6D2D0E943403682F812FB7
:100950009F2D9C0F0E949903CF5FEBCFE091080180
:10096000F09109018281C81740F460E0812F9F2D2A
:100970009C0F0E949903CF5FF1CF1F5F812F902FB3
:10098000DF91CF911F910F91FF90EF90DF9008952D
:100990000F931F93CF938C01C0E0F80181918F01D9
:1009A000882341F00E944A04BC01CF5F853014F4D3
:1009B00077FFF3CF8C2FCF911F910F9108950F9355
:1009C0001F93CF93DF9310920C0140930D0110926F
:1009D000100100910801109109010115110509F498
:1009E00049C09B01EC01F801818160910601709181
:1009F000070190E00E94E606BC0180910A019091F7
:100A00000B010E94F706CB016AE070E00E94E60647
:100A100090930F0180930E01309305012093040100
:100A200040E250E0BE0181E191E00E944C078091DC
:100A30000001909101010197E9F4FE01019000206D
:100A4000E9F73197BF016C1B7D0BF80181818F5F46
:100A50000E94DD0681502091020130910301213076
:100A6000310511F095E001C097E0981718F48EEF6A
:100A700080931001DF91CF911F910F9108952091E4
:100A80000201309103012130310511F070E001C005
:100A900076E04FEF60E00E94DF04089590E09093CD
:100AA000070180930601089590930101809300014E
:100AB0000895909303018093020108959093090192
:100AC00080930801089580913F049091400401961D
:100AD0009093400480933F0420910E0130910F01C8
:100AE0008217930708F469C01092400410923F04E3
:100AF000E0910C01F0E0E050FF4F818981110AC0C4
:100B000080910D01823008F458C0815080930D010E
:100B100010920C0180910C0190E0FC01E050FF4F1D
:100B20002189222309F449C040910001509101011B
:100B3000209110014115510521F04130510599F0E6
:100B400024C0211122C060910401709105018F5EC3
:100B50009E4F0E94C80490E0019790910C01890F6C
:100B600080930C0112C060910401709105014091C5
:100B70000201509103014130510511F4720F01C07F
:100B8000621B8F5E9E4F0E94C804809110018F5F90
:100B900080931001082E000C990BE0910801F09150
:100BA0000901218130E0281739073CF41092100127
:100BB00080910C018F5F80930C010C94C801CF933E
:100BC000DF93C0E0D1E09B878A870E94E40184E143
:100BD00090E09F838E83DF91CF910C944304E0914A
:100BE0004104F0E0EE0FFF1FE852FC4F20813181FD
:100BF000F901FF2794A1932B94A395A1932B95A37F
:100C0000E2EEF3E020E030E090E0AC01022E02C022
:100C1000559547950A94E2F740FF0AC040815181FB
:100C2000DA01BB2795964C9195975095452308C0BE
:100C300040815181DA01BB2795964C919597452BC0
:100C400095964C932F5F3F4F329627303105E9F64A
:100C500060934104E62FF0E0EE0FFF1FE852FC4FD7
:100C600080819181FC01FF2784A1892B84A385A128
:100C70009095892385A308950E946B010E94BA0272
:100C800084EF91E00E946C030E94C70210E108E12A
:100C9000D0E1C2E00E9481030E944E0281E00E94E6
:100CA0001C02882329F08C2F90E003970CF4CF5F6F
:100CB00083E00E941C02882329F08C2F90E0029789
:100CC0000CF0C15080E00E941C02882329F0D23031
:100CD00019F0D6950695169582E00E941C0288238D
:100CE00029F0D03219F0DD0F000F110F6FEF6C0FEC
:100CF0008D2F0E94EF050E9481036C2F802F0E9490
:100D0000EF050E94810361E06C0F812F0E94EF05C7
:100D1000C1CFCF930E946B0184EF91E00E946C03DE
:100D20000E94E4010E947B0184EF91E00E94DF05B4
:100D30008AE393E00E945E058AE00E944E0581E00E
:100D400090E00E94540585E194E00E943F0584E014
:100D50000E944402882349F00E94A9000E94810356
:100D60000E9463050E944E02F2CF0E94C702C0E0BB
:100D70000E948103EC2FF0E0E45CFE4F6C2F808139
:100D80000E945900CF5FC53008F0C0E080E00E94AB
:100D90001C02811108C082E00E941C02811103C064
:100DA0000E944E02E5CF0E94B0000E9423010E94E3
:100DB0003C0680E090E0CF910895002480FD060E6F
:100DC000660F11F08695D1F7802D089500245527E0
:100DD00004C0080E591F880F991F009729F07695B7
:100DE0006795B8F37105B9F7802D952F0895AA1B63
:100DF000BB1B51E107C0AA1FBB1FA617B70710F006
:100E0000A61BB70B881F991F5A95A9F78095909537
:100E1000BC01CD010895052E97FB1EF400940E949D
:100E2000220757FD07D00E942A0707FC03D04EF483
:100E30000C94220750954095309521953F4F4F4F88
:100E40005F4F089590958095709561957F4F8F4F76
:100E50009F4F0895A1E21A2EAA1BBB1BFD010DC0D6
:100E6000AA1FBB1FEE1FFF1FA217B307E407F5075A
:100E700020F0A21BB30BE40BF50B661F771F881F36
:100E8000991F1A9469F760957095809590959B01CC
:100E9000AC01BD01CF010895FB01DC014150504080
:100EA00048F001900D920020C9F701C01D924150F9
:0A0EB0005040E0F70895F894FFCFDA
:100EBA000000000000001400000000000000000014
:100ECA000000000000000000000000000000000018
:100EDA000000000000000000000000000000000008
:100EEA000000000808000000101810000004262462
:100EFA00000340008003100380032000400020000C
:100F0A00100008000400020001010507205F050027
:100F1A0000000000C6186380014A290000004A7DCB
:100F2A00F59502C417471F0163222232062615517E
:100F3A009305860800000088082108028220848818
:100F4A0000805457090080904F0800000060880014
:100F5A0000800F00000000008C0100222202002EF7
:100F6A00E63AA303C4104288032E4244C4072E4221
:100F7A0007A30388A9F411023F8407A3032E861747
:100F8A00A3033F424408012E4617A3032E460FA38C
:100F9A0003C018600C00C018608800888820080206
:100FAA00007CF0010082208888002E424400012E35
:100FBA00425BAB0344C51F63042FC617E3032E86A7
:100FCA0010A2032FC618E3033F8417C2073F8417F2
:100FDA0042002E861EA30731C61F63048E10428864
:100FEA0003104218A3033195515204218410C207F9
:100FFA0071D71A630471D61C63042EC618A3032F73
:10100A00C61742002EC65893052FC61763042E062C
:10101A0007A3039F1042080131C618A30331C6185B
:10102A00150131C65AAB02312AA26204312A42089A
:10103A00011F2222C207278410C201200882200031
:10104A000E218490034445000000000000C007827E
:10105A00200000000038E8A30721B419E30300B810
:10106A0010A20310DA1CA30700B8F883034C8A23E2
:10107A008400C0C7E8A10321B41963040418428894
:10108A0003083084920121A4324A0286104288035E
:10109A0000AC5A630400B419630400B818A303002F
:1010AA00BCF8420000D8EC210400B419420000B890
:1010BA00E0E003421C21240300C418B30500C4184D
:1010CA00150100C45AAB02004445540400C4E8A107
:1010DA0003007C44C40788104108028410420801B6
:1010EA00821044880000888A0000010305203B0220
:1010FA0000009220EB737D5FDE3DA552EA7A140070
:10110A004A222229BA2ED0050014C0010020A412B6
:10111A006A2B9A74A372A338ED498F38CE2AA71284
:10112A00AA2AAE49100410145444380E11152A255F
:10113A000000EA5BEB3A4F726B3BCF73CF134F7AE7
:10114A00ED5B9774247B5D564972FD5B6F5B6F7B29
:10115A00EF136F7FEF57CE3897246D7B6D2BED5FC2
:10116A00AD5AAD24A7720380034003200080031008
:10117A000340008003100380032000400020001079
:10118A0000080004000200010340008003100380ED
:10119A0003200040002000100008000400020001A3
:1011AA0020204249524420202000202043414E4E14
:1011BA004F4E2020200020203320203220203120B2
:1011CA0020474F210043484F4F534520434841523F
:0811DA0041435445522000007E
:00000001FF
