:100000000C943A000C9457000C9457000C94570031
:100010000C9457000C9457000C9457000C94570004
:100020000C9457000C9457000C9457000C945700F4
:100030000C9457000C9457000C9457000C945700E4
:100040000C9457000C9457000C9457000C945700D4
:100050000C9457000C9457000C9457000C945700C4
:100060000C9457000C9457000C9457000C945700B4
:100070000C94570011241FBECFEFD4E0DEBFCDBFDC
:1000800014E0A0E0B1E0E0E6F6E102C005900D92D8
:10009000A833B107D9F724E0A8E3B4E001C01D926A
:1000A000AC35B207E1F70E94340A0C942E0B0C9485
:1000B0000000E1E6F0E080E880831082A89584B734
:1000C000877F84BFE0E6F0E08081886180831082D2
:1000D00008951092800084E0809381001092850042
:1000E0001092840008958091840090918500089575
:1000F000AC0180918400909185009C01241B350BFC
:10010000283E3340B0F70895209184003091850057
:10011000820F931F0C947800853098F4673088F430
:1001200021E030E001C0220F6A95EAF7E82FF0E005
:10013000E75CFB4F922F9095808189234111822BA0
:1001400080830895853080F4673070F421E030E0DA
:1001500001C0220F6A95EAF7E82FF0E0E75CFB4F59
:100160008081282381E009F480E0089560913804BB
:10017000E62FF0E0E75CFB4F80810E94D701809181
:1001800038048F5F853018F48093380408951092F6
:1001900038040895E9E3F4E0108211821282138298
:1001A000148208950E94B5010C94CA006230710552
:1001B00019F170F46130710559F5FC01FF2724A194
:1001C000392F3095922F932394A385A183231DC0AB
:1001D0006330710541F064307105D1F4FC01FF27F3
:1001E00084A1892B0FC0FC01FF2784A1892B84A344
:1001F00085A19095892309C0FC01FF2784A1292F9F
:100200002095822384A385A1892B85A381E008956D
:1002100080E00895E82FF0E0EE0FFF1FE25CFB4F57
:100220008081882321F0918181E0892702C080E0CC
:1002300090E081700895E82FF0E0EE0FFF1FE25C80
:10024000FB4F8081811102C0818102C080E090E07B
:1002500081700895E82FF0E0EE0FFF1FE25CFB4F86
:1002600080810895E82FF0E0EE0FFF1FE25CFB4F66
:10027000908181E0892708957F928F929F92AF921B
:10028000BF92CF92DF92EF92FF920F931F93CF9383
:10029000DF93CEE3D4E05DEBC52E51E0D52E66E0D2
:1002A000762E88818983F601019111916F015801A1
:1002B000BB24F50124A1E12EFF2485A190E08E212D
:1002C0009F2130E02E213F21232B31F0892B51F447
:1002D00033E0832E912C0DC0892B41F48824839424
:1002E000912C07C094E0892E912C03C082E0882EC7
:1002F000912C64E070E0C8010E94D60062E070E0DA
:10030000C8010E94D600872D8A95F1F7F50183A1D7
:1003100090E0E822F92281E0EF2809F080E088836C
:10032000B401C8010E94D6002296F4E0C834DF0769
:1003300009F0B7CFDF91CF911F910F91FF90EF9010
:10034000DF90CF90BF90AF909F908F907F90089557
:1003500008959C01FC01FF2784A1832B84A395A110
:10036000892F832B85A381E00895CF93DF93C1ED7F
:10037000D1E0899199910E94A90181E0CF3DD807F0
:10038000C1F783E090E40E94A90180E090E80E9418
:10039000A90183E090E10E94A90183E090E80E9416
:1003A000A90183E090E2DF91CF910C94A901E09143
:1003B0004804F0E0EE0FFF1FE953FE4F208131812A
:1003C000F901FF2795A1932B95A3E1EDF1E097E0CB
:1003D00020813181D901BB2795962C91959780FF7B
:1003E00003C03095232301C0232B95962C9386952B
:1003F000915032969111ECCFE62FF0E0EE0FFF1FF7
:10040000E953FE4F80819181FC01FF2785A19095E2
:10041000892385A3609348040895009789F0FC011F
:100420002381621B67FD09C0062E000C770B248117
:1004300030E081E0621773070CF080E0817008956E
:1004400080E00895CF93DF93FC01892B79F18181BE
:10045000481760F59281291748F59381A62FA91BAB
:10046000A7FD24C00A2E000CBB0BC481D0E0AC1742
:10047000BD07E4F4622F0E94B00A480F858190E026
:10048000BD010E94B90A0696242F26952695269529
:10049000E80FF91FE20FF11D808190E0477002C064
:1004A000959587954A95E2F7817001C080E0DF91CC
:1004B000CF910895CF93DF93EC010E9469009E01D4
:1004C00040E050E062E17AE780E090E00E94DE0ADE
:1004D00030934C0420934B04DF91CF910895809189
:1004E000490490914A040E94780020914904309177
:1004F0004A0480914B0490914C04820F931F909377
:100500004A04809349040895692F0C94A20041E0A5
:10051000611101C040E0692F0C948C000C9487029B
:100520005F926F927F928F929F92AF92BF92CF9283
:10053000DF92EF92FF920F931F93CF93DF93562E8C
:10054000872E942E5C01E62EF72EC62F660FDD0B4C
:10055000C81BD10987FDD395072F770F110B091BF6
:10056000110997FD1395D7FF03C077247A9402C031
:100570007724739417FF03C066246A9402C066242C
:100580006394D7FF03C0D195C195D10917FF03C06C
:10059000119501951109C017D107A4F06E01D594EA
:1005A000C794F92EA51411F1692D8A2D9F2D0E9453
:1005B0008702C01AD10AD7FE03C0CC0EDD1EF60C8E
:1005C000A70CF0CF6801D594C794E82EB81471F049
:1005D000692D8E2D9B2D0E948702CC1ADD0AD7FE35
:1005E00003C0C00ED11EE70CB60CF0CF692DC701B9
:1005F000DF91CF911F910F91FF90EF90DF90CF90FF
:10060000BF90AF909F908F907F906F905F900C9471
:100610008702FF920F931F93CF93DF93D82FF92E6A
:10062000162FC72F042F792F0E949002402F6D2F75
:100630007C2F8D2F9F2D0E949002402F612F7C2FA9
:10064000812F9F2D0E949002402F612F7C2F8D2F94
:100650009C2F0E949002DF91CF911F910F91FF90EC
:1006600008950E94CA00E0E0F1E0118A148608951E
:10067000DF92EF92FF920F931F93CF93DF93D82EC9
:100680007B01162F0F2D8091020190910301D0E084
:10069000019799F50F2D0D1BE0910801F0910901CB
:1006A0008181C0E0D817B8F48091080190910901C8
:1006B000FC012281C21768F42C2F4D2F6D2D0E9452
:1006C0002202682F8E2D8C0F902F0E948702CF5F01
:1006D000EBCFDF5FDFCFE0910801F091090182816C
:1006E000C81740F460E08E2D8C0F902F0E94870277
:1006F000CF5FF1CF015030C0DF5F1E2D1D0FE091A5
:100700000801F09109018181C0E0D817A8F4809117
:10071000080190910901FC012281C21768F72C2F72
:100720004D2F6D2D0E942202682F812F9F2D9C0F2F
:100730000E948702CF5FEBCFE0910801F0910901A1
:100740008281C81740F460E0812F9F2D9C0F0E948A
:100750008702CF5FF1CF1F5F812F902FDF91CF9165
:100760001F910F91FF90EF90DF9008950F931F93CB
:10077000CF938C01C0E0F80181918F01882341F073
:100780000E943803BC01CF5F853014F477FFF3CFAC
:100790008C2FCF911F910F9108950F931F93CF939B
:1007A000DF9310920C0140930D0110921001009103
:1007B0000801109109010115110509F449C09B01B7
:1007C000EC01F8018181609106017091070190E0D0
:1007D0000E94B90ABC0180910A0190910B010E940C
:1007E000CA0ACB016AE070E00E94B90A90930F0137
:1007F00080930E01309305012093040140E250E004
:10080000BE0181E191E00E941F0B80910001909157
:1008100001010197E9F4FE0101900020E9F7319709
:10082000BF016C1B7D0BF80181818F5F0E94B00AB4
:10083000815020910201309103012130310511F0E6
:1008400095E001C097E0981718F48EEF809310019F
:10085000DF91CF911F910F91089520910201309166
:1008600003012130310511F070E001C076E04FEF57
:1008700060E00E94CD03089590E09093070180937B
:1008800006010895909301018093000108959093CB
:100890000301809302010895909309018093080158
:1008A000089580914D0490914E04019690934E04CA
:1008B00080934D0420910E0130910F018217930710
:1008C00008F469C010924E0410924D04E0910C019E
:1008D000F0E0E050FF4F818981110AC080910D0145
:1008E000823008F458C0815080930D0110920C01A1
:1008F00080910C0190E0FC01E050FF4F2189222300
:1009000009F449C04091000150910101209110016A
:100910004115510521F04130510599F024C02111B4
:1009200022C060910401709105018F5E9E4F0E946C
:10093000B60390E0019790910C01890F80930C0110
:1009400012C0609104017091050140910201509123
:1009500003014130510511F4720F01C0621B8F5E1B
:100960009E4F0E94B603809110018F5F809310010B
:10097000082E000C990BE0910801F09109012181EA
:1009800030E0281739073CF41092100180910C01D7
:100990008F5F80930C010C94B600CF93DF93C0E07F
:1009A000D1E09B878A870E94D20084E190E09F83F8
:1009B0008E83DF91CF910C943103811105C06623A2
:1009C00011F0429A0895429808953A9A429A0895E9
:1009D0000C9452050C9473050C9458050C945E0508
:1009E0000C9464050E9464050E945E058823E1F36F
:1009F0008CE291E00197F1F70E94520581110C946D
:100A0000EA0408950C947A05CF93DF9300D01F92E7
:100A1000CDB7DEB78091DF019091E001A091E101B7
:100A200089839A83AB83509A589A0E94EF058FE688
:100A300090E00E94860581E090E00E94DE0561E082
:100A400070E081E090E00E94CA050E94B605CE01E8
:100A500001960E943A050F900F900F90DF91CF9171
:100A600008959C01215031093093CD00815080932D
:100A7000CC000895CF93DF93EC01888199810E9487
:100A800031058A819BEF980F943008F088E098E157
:100A90009093C9008550880F8093CA0081E0DF9150
:100AA000CF9108958091C800881F8827881F0895D6
:100AB0008091C80085FB882780F908958091C8003F
:100AC00086FB882780F90895CF93C82F0E94580588
:100AD0008823E1F38091C80080648093C800C093AC
:100AE000CE00CF9108958091C80087FFFCCF809100
:100AF000CE000895CF93DF93EC018991882319F0FC
:100B00000E946405FACFDF91CF910895CF93DF93D0
:100B10001F92CDB7DEB79E012F5F3F4F45E062EEDB
:100B200071E00E94FB0591E0980F9093310199814B
:100B3000915097BD18BC95B5977039F095B5209137
:100B400031012770987F922B95BD298130E0E82FE5
:100B5000F0E0EE51FE4FC901008002C0880F991FDE
:100B60000A94E2F70F90DF91CF91089585B3897FC2
:100B700085BB85B5909131019770887F892B85BDA4
:100B8000089585B5887F85BD089585B382FB882744
:100B900080F90895009719F0019741F0089584B500
:100BA0008F736295660F660F607C05C084B56370B5
:100BB0006295607F8F7C682B64BD0895009741F03B
:100BC000019759F484B58E7F84BD84B5826002C0DC
:100BD00084B58C7F84BD81E0089580E0089514BCC5
:100BE00015BC16BC18BC84B58E7F84BD84B58260EC
:100BF00084BD81E00895CF93DF93DC01FB0160E0C9
:100C000070E080E0C1E0D0E08417C9F09191BE01AE
:100C1000092E02C0660F771F0A94E2F76F5F7F4FBD
:100C2000769567956A0F7B1F02C0769567959A95B2
:100C3000E2F76F3F710519F010F08F5FE5CFF90112
:100C40006083DF91CF910895CF93DF93EC0180E033
:100C50000E940A018823E9F089811816D4F4609172
:100C60003A0170913B0140E0888199810E94900295
:100C700089818150898380913B01815080933B0120
:100C800060913A0170913B0141E0888199810E9415
:100C9000900282E00E940A018823F9F08981853060
:100CA000E4F460913A0170913B0140E088819981C0
:100CB0000E94900289818F5F898380913B018F5FC1
:100CC00080933B0160913A0170913B0141E0888142
:100CD0009981DF91CF910C949002DF91CF9108958B
:100CE000CF93C92F84E00E941B01882319F081E073
:100CF0008093590480915904882309F468C0809135
:100D00005704909158040196909358048093570487
:100D1000C29761F482E080935504C093560461E069
:100D200080915504909156040E9487028091570447
:100D3000909158048639910599F460E080915504AA
:100D4000909156040E9487028091550481508093AF
:100D5000550461E080915504909156040E948702E9
:100D600080915704909158048A3F910599F460E06E
:100D700080915504909156040E94870280915504F9
:100D800081508093550461E0809155049091560400
:100D90000E94870280915704909158048E359140AB
:100DA000B1F460E080915504909156040E9487024E
:100DB0001092590410925804109257040E94EC04A7
:100DC000882329F080915604CF910C94F204CF919E
:100DD0000895609136017091370141E080913801AA
:100DE000909139010E94900261E0809134019091CC
:100DF00035010E94870280E00E940A018823B9F130
:100E00008091390183309CF160E0809134019091B0
:100E100035010E948702609136017091370140E0F0
:100E200080913801909139010E949002809139019E
:100E3000815080933901809137018150809337012F
:100E40008091350181508093350160913601709118
:100E5000370141E080913801909139010E94900260
:100E600061E080913401909135010E94870282E017
:100E70000E940A018823B9F18091390186309CF5DE
:100E800060E080913401909135010E948702609169
:100E900036017091370140E080913801909139011D
:100EA0000E949002809139018F5F80933901809177
:100EB00037018F5F80933701809135018F5F809379
:100EC0003501609136017091370141E08091380120
:100ED000909139010E94900261E0809134019091DB
:100EE00035010E94870281E00E940A018823B9F13E
:100EF0008091360184309CF560E0809134019091BE
:100F000035010E948702609136017091370140E0FF
:100F100080913801909139010E94900280913801AE
:100F20008F5F80933801809136018F5F8093360107
:100F3000809134018F5F809334016091360170910C
:100F4000370141E080913801909139010E9490026F
:100F500061E080913401909135010E94870283E025
:100F60000E940A018823B9F18091380118169CF576
:100F700060E080913401909135010E948702609178
:100F800036017091370140E080913801909139012C
:100F90000E949002809138018150809338018091A5
:100FA00036018150809336018091340181508093C5
:100FB0003401609136017091370141E08091380130
:100FC000909139010E94900261E0809134019091EA
:100FD00035010C9487020895EF92FF921F93CF93EF
:100FE000DF9300D000D000D0CDB7DEB7E090F101A4
:100FF000F090F20141E0B70180913201909133010C
:101000000E94900286E0E7EEF1E0DE011196019089
:101010000D928A95E1F70E94E804882349F00E9426
:10102000EA0480935404873018F481E080935304D9
:1010300080915304882309F4ECC08091510490916D
:10104000520401969093520480935104C297A1F4E4
:1010500010924F0480915404E1E0F0E0EC0FFD1F8A
:10106000E80FF11D80818093500461E080914F046E
:10107000909150040E9487028091510490915204F3
:1010800086399105F1F460E080914F04909150040D
:101090000E94870280914F048F5F80934F0480915C
:1010A0004F04909150040E94840211E0813009F0B5
:1010B00010E061E080914F04909150040E948702FB
:1010C00001C010E080915104909152048A3F910533
:1010D000E1F460E080914F04909150040E948702F7
:1010E00080914F048F5F80934F0480914F049091C3
:1010F00050040E948402813009F411E061E0809183
:101100004F04909150040E94870280915104909165
:1011100052048E359140E1F460E080914F0490914B
:1011200050040E94870280914F048F5F80934F0488
:1011300080914F04909150040E948402813009F400
:1011400011E061E080914F04909150040E94870269
:101150008091510490915204823C914099F460E056
:1011600080914F04909150040E94870280914F0417
:101170008F5F80934F0461E080914F049091500401
:101180000E948702809151049091520486329240CD
:1011900069F460E080914F04909150040E948702AE
:1011A000109253041092520410925104112389F1A9
:1011B0000E94150940E0B7018091320190913301FE
:1011C0000E949002809132018F5F8093320141E052
:1011D000B70180913201909133010E949002809179
:1011E00032018430B4F06091ED017091EE0140E085
:1011F0008091EF019091F00126960FB6F894DEBF32
:101200000FBECDBFDF91CF911F91FF90EF900C9457
:10121000900226960FB6F894DEBF0FBECDBFDF91C9
:10122000CF911F91FF90EF900895CF93DF93A9EE98
:10123000B3E027EF33E08D919D91FC01FF2784A15E
:10124000892B84A385A19095892385A32A173B0721
:1012500091F7AFEDB3E029EE33E08D919D91FC0164
:10126000FF2784A1892B84A385A19095892385A339
:101270002A173B0791F7C2E3D0E00E946F02219743
:10128000E1F70E94B501C0E5D0E00E946F0221970E
:10129000E1F7DF91CF910895E0915A04F0915B045A
:1012A000EE0FFF1FE152FC4F20813181F901FF2732
:1012B00094A1932B94A395A1932B95A3E9EEF3E02E
:1012C00020E030E090E0AC01022E02C05595479539
:1012D0000A94E2F740FF0AC040815181DA01BB273E
:1012E00095964C9195975095452308C04081518122
:1012F000DA01BB2795964C919597452B95964C9383
:101300002F5F3F4F329627303105E9F670E070933A
:101310005B0460935A04660F771FFB01E152FC4F98
:1013200080819181FC01FF2784A1892B84A385A161
:101330009095892385A3089584E00E941B01811163
:101340000C943103089589E094E00E942D040E94DA
:101350006F020E9451040E943C0180E00E940A0139
:10136000882319F083E50C94F2040E94E804882392
:1013700071F30E94EA04833551F708950F931F9388
:10138000CF9380E00E940A01882321F182E194E05A
:101390000E942D0404EC19E00E946F020E94510487
:1013A00001501109C9F708EE13E0C0E00E946F0276
:1013B000EC2FF0E0E750FE4F6C2F80810E944C092B
:1013C000CF5FC53008F0C0E00150110979F708EE91
:1013D00013E003C000E010E0C0E082E00E940A01D8
:1013E000882319F18CE194E00E942D040E946F0281
:1013F0000E9451040F5F1F4F083B8BE01807B1F7A5
:1014000008EE13E00E946F02EC2FF0E0ED50FE4F6B
:101410006C2F80810E944C09CF5FC53008F0C0E07E
:101420000150110979F708EE13E00E94A3098EEF2D
:1014300091E00E944C0488E294E00E942D040E94F6
:101440006F020E9451040F5F1F4F023884E118079A
:10145000B1F70E9415090E9415090E941509CF9144
:101460001F910F910C941509CF93DF9300D0CDB746
:10147000DEB70E9459000E94040584EF91E00E94AB
:101480005A020E94D2000E94690084EF91E00E94FB
:10149000CD0481E491E00E944C0484E10E943C046C
:1014A00081E090E00E94420487EF93E00E942D04C7
:1014B00084E00E943201882349F00E949C090E9426
:1014C0006F020E9451040E943C01F2CF0E94B501BC
:1014D00010E00E946F02E12FF0E0E45CFE4F612F0C
:1014E00080810E944C091F5F153008F010E080E0F9
:1014F0000E940A01811108C082E00E940A01811144
:1015000006C00E943C01E5CF01E010E002C002E00D
:1015100010E00E94BE090E9415090E94310384E078
:10152000898385E08A830130110559F40E94E90618
:101530000E94EC070E9451040E943C010E946F022D
:10154000F5CFCE0101960E94240689819A810E94DE
:1015500070060E9451040E943C010E946F02F1CF6C
:10156000002480FD060E660F11F08695D1F7802DC0
:1015700008950024552704C0080E591F880F991F8D
:10158000009729F076956795B8F37105B9F7802D26
:10159000952F0895AA1BBB1B51E107C0AA1FBB1FB3
:1015A000A617B70710F0A61BB70B881F991F5A95EF
:1015B000A9F780959095BC01CD010895052E97FB64
:1015C0001EF400940E94F50A57FD07D00E94FD0A00
:1015D00007FC03D04EF40C94F50A509540953095D5
:1015E00021953F4F4F4F5F4F08959095809570958F
:1015F00061957F4F8F4F9F4F0895A1E21A2EAA1B2E
:10160000BB1BFD010DC0AA1FBB1FEE1FFF1FA217B2
:10161000B307E407F50720F0A21BB30BE40BF50BAF
:10162000661F771F881F991F1A9469F76095709538
:10163000809590959B01AC01BD01CF010895FB0100
:10164000DC014150504048F001900D920020C9F754
:1016500001C01D9241505040E0F70895F894FFCF2B
:101660000000000000001400000000000000000066
:10167000000000000000000000000000000000006A
:10168000000000000000000000000000000000005A
:1016900000010200020303040104030500042624E0
:1016A00000010305203B0200009220EB737D5FDE0A
:1016B0003DA552EA7A14004A222229BA2ED005000A
:1016C00014C0010020A4126A2B9A74A372A338EDEF
:1016D000498F38CE2AA712AA2AAE491004101454F2
:1016E00044380E11152A250000EA5BEB3A4F726B65
:1016F0003BCF73CF134F7AED5B9774247B5D5649D4
:1017000072FD5B6F5B6F7BEF136F7FEF57CE389788
:10171000246D7B6D2BED5FAD5AAD24A77203800362
:101720004003200080031003400080031003800367
:10173000200040002000100008000400020001D03A
:101740000008000306080A0605040302010400025B
:101750000005000000001010000010181000010526
:1017600007205F050000000000C6186380014A29B9
:101770000000004A7DF59502C417471F016322222D
:1017800032062615519305860800000088082108B6
:10179000028220848800805457090080904F0800FE
:1017A000000060880000800F00000000008C010035
:1017B000222202002EE63AA303C4104288032E42DE
:1017C00044C4072E4207A30388A9F411023F8407EB
:1017D000A3032E8617A3033F424408012E4617A3F6
:1017E000032E460FA303C018600C00C018608800C9
:1017F0008888200802007CF0010082208888002E62
:10180000424400012E425BAB0344C51F63042FC654
:1018100017E3032E8610A2032FC618E3033F841795
:10182000C2073F841742002E861EA30731C61F63DE
:10183000048E10428803104218A3033195515204BC
:10184000218410C20771D71A630471D61C63042E59
:10185000C618A3032FC61742002EC65893052FC6DD
:101860001763042E0607A3039F1042080131C61810
:10187000A30331C618150131C65AAB02312AA26240
:1018800004312A4208011F2222C207278410C20104
:1018900020088220000E21849003444500000000AF
:1018A0000000C00782200000000038E8A30721B430
:1018B00019E30300B810A20310DA1CA30700B8F85C
:1018C00083034C8A238400C0C7E8A10321B41963B1
:1018D000040418428803083084920121A4324A0289
:1018E000861042880300AC5A630400B419630400F4
:1018F000B818A30300BCF8420000D8EC210400B4DF
:1019000019420000B8E0E003421C21240300C4187F
:10191000B30500C418150100C45AAB020044455475
:101920000400C4E8A103007C44C4078810410802F5
:101930008410420801821044880000888A00000355
:1019400040008003100380032000400020001000AE
:101950000800040002000143484F4F53452043480C
:1019600041524143544552200053594E43494E473A
:1019700020002020424952442020200020204341C2
:101980004E4E4F4E20202000202033202032202099
:08199000312020474F21000027
:00000001FF
